{
    "_format": "hh-sol-artifact-1",
    "contractName": "LimitOrderExecutor",
    "sourceName": "contracts/LimitOrder.sol",
    "abi": [
        {
            "inputs": [
                {
                    "internalType": "address",
                    "name": "_router",
                    "type": "address"
                }
            ],
            "stateMutability": "nonpayable",
            "type": "constructor"
        },
        {
            "anonymous": false,
            "inputs": [
                {
                    "indexed": true,
                    "internalType": "uint256",
                    "name": "orderId",
                    "type": "uint256"
                }
            ],
            "name": "OrderCancelled",
            "type": "event"
        },
        {
            "anonymous": false,
            "inputs": [
                {
                    "indexed": true,
                    "internalType": "uint256",
                    "name": "orderId",
                    "type": "uint256"
                },
                {
                    "indexed": true,
                    "internalType": "address",
                    "name": "maker",
                    "type": "address"
                },
                {
                    "indexed": false,
                    "internalType": "uint256",
                    "name": "amountIn",
                    "type": "uint256"
                }
            ],
            "name": "OrderCreated",
            "type": "event"
        },
        {
            "anonymous": false,
            "inputs": [
                {
                    "indexed": true,
                    "internalType": "uint256",
                    "name": "orderId",
                    "type": "uint256"
                },
                {
                    "indexed": false,
                    "internalType": "uint256",
                    "name": "amountOut",
                    "type": "uint256"
                }
            ],
            "name": "OrderExecuted",
            "type": "event"
        },
        {
            "inputs": [
                {
                    "internalType": "uint256",
                    "name": "orderId",
                    "type": "uint256"
                }
            ],
            "name": "cancelOrder",
            "outputs": [],
            "stateMutability": "nonpayable",
            "type": "function"
        },
        {
            "inputs": [
                {
                    "internalType": "address",
                    "name": "tokenIn",
                    "type": "address"
                },
                {
                    "internalType": "address",
                    "name": "tokenOut",
                    "type": "address"
                },
                {
                    "internalType": "uint24",
                    "name": "poolFee",
                    "type": "uint24"
                },
                {
                    "internalType": "address",
                    "name": "pool",
                    "type": "address"
                },
                {
                    "internalType": "uint256",
                    "name": "amountIn",
                    "type": "uint256"
                },
                {
                    "internalType": "uint256",
                    "name": "amountOutMin",
                    "type": "uint256"
                },
                {
                    "internalType": "uint160",
                    "name": "targetSqrtPriceX96",
                    "type": "uint160"
                },
                {
                    "internalType": "bool",
                    "name": "triggerAbove",
                    "type": "bool"
                },
                {
                    "internalType": "uint256",
                    "name": "ttlSeconds",
                    "type": "uint256"
                }
            ],
            "name": "depositAndCreateOrder",
            "outputs": [
                {
                    "internalType": "uint256",
                    "name": "orderId",
                    "type": "uint256"
                }
            ],
            "stateMutability": "nonpayable",
            "type": "function"
        },
        {
            "inputs": [
                {
                    "internalType": "uint256",
                    "name": "orderId",
                    "type": "uint256"
                }
            ],
            "name": "executeOrder",
            "outputs": [],
            "stateMutability": "nonpayable",
            "type": "function"
        },
        {
            "inputs": [
                {
                    "internalType": "uint256",
                    "name": "orderId",
                    "type": "uint256"
                }
            ],
            "name": "getOrder",
            "outputs": [
                {
                    "components": [
                        {
                            "internalType": "address",
                            "name": "maker",
                            "type": "address"
                        },
                        {
                            "internalType": "address",
                            "name": "tokenIn",
                            "type": "address"
                        },
                        {
                            "internalType": "address",
                            "name": "tokenOut",
                            "type": "address"
                        },
                        {
                            "internalType": "uint24",
                            "name": "poolFee",
                            "type": "uint24"
                        },
                        {
                            "internalType": "address",
                            "name": "pool",
                            "type": "address"
                        },
                        {
                            "internalType": "uint256",
                            "name": "amountIn",
                            "type": "uint256"
                        },
                        {
                            "internalType": "uint256",
                            "name": "amountOutMin",
                            "type": "uint256"
                        },
                        {
                            "internalType": "uint160",
                            "name": "targetSqrtPriceX96",
                            "type": "uint160"
                        },
                        {
                            "internalType": "bool",
                            "name": "triggerAbove",
                            "type": "bool"
                        },
                        {
                            "internalType": "uint256",
                            "name": "expiry",
                            "type": "uint256"
                        },
                        {
                            "internalType": "bool",
                            "name": "filled",
                            "type": "bool"
                        },
                        {
                            "internalType": "bool",
                            "name": "cancelled",
                            "type": "bool"
                        }
                    ],
                    "internalType": "struct LimitOrderExecutor.Order",
                    "name": "",
                    "type": "tuple"
                }
            ],
            "stateMutability": "view",
            "type": "function"
        },
        {
            "inputs": [],
            "name": "nextOrderId",
            "outputs": [
                {
                    "internalType": "uint256",
                    "name": "",
                    "type": "uint256"
                }
            ],
            "stateMutability": "view",
            "type": "function"
        },
        {
            "inputs": [],
            "name": "owner",
            "outputs": [
                {
                    "internalType": "address",
                    "name": "",
                    "type": "address"
                }
            ],
            "stateMutability": "view",
            "type": "function"
        },
        {
            "inputs": [
                {
                    "internalType": "address",
                    "name": "token",
                    "type": "address"
                },
                {
                    "internalType": "address",
                    "name": "to",
                    "type": "address"
                },
                {
                    "internalType": "uint256",
                    "name": "amount",
                    "type": "uint256"
                }
            ],
            "name": "ownerWithdraw",
            "outputs": [],
            "stateMutability": "nonpayable",
            "type": "function"
        },
        {
            "inputs": [],
            "name": "router",
            "outputs": [
                {
                    "internalType": "contract ISwapRouter",
                    "name": "",
                    "type": "address"
                }
            ],
            "stateMutability": "view",
            "type": "function"
        }
    ],
    "bytecode": "0x60a060405234801561001057600080fd5b5060405161145138038061145183398101604081905261002f9161005d565b60008054336001600160a01b031990911617905560601b6001600160601b031916608052600160025561008b565b60006020828403121561006e578081fd5b81516001600160a01b0381168114610084578182fd5b9392505050565b60805160601c61139f6100b2600039806105d552806107005280610d7c525061139f6000f3fe608060405234801561001057600080fd5b50600436106100885760003560e01c806394f611341161005b57806394f61134146100e8578063d09ef241146100fb578063d4b212ee1461011b578063f887ea401461012e57610088565b80632a58b3301461008d5780632bcaa0e2146100ab578063514fcac7146100c05780638da5cb5b146100d3575b600080fd5b610095610136565b6040516100a29190611356565b60405180910390f35b6100be6100b9366004610ea9565b61013c565b005b6100be6100ce366004610f0c565b610277565b6100db610466565b6040516100a29190610f65565b6100be6100f6366004610f0c565b610482565b61010e610109366004610f0c565b6107c4565b6040516100a2919061127f565b610095610129366004610e02565b6108b3565b6100db610d7a565b60025481565b60005473ffffffffffffffffffffffffffffffffffffffff163314610196576040517f08c379a000000000000000000000000000000000000000000000000000000000815260040161018d90611127565b60405180910390fd5b6040517fa9059cbb00000000000000000000000000000000000000000000000000000000815273ffffffffffffffffffffffffffffffffffffffff84169063a9059cbb906101ea9085908590600401610fb7565b602060405180830381600087803b15801561020457600080fd5b505af1158015610218573d6000803e3d6000fd5b505050506040513d601f19601f8201168201806040525081019061023c9190610ee9565b610272576040517f08c379a000000000000000000000000000000000000000000000000000000000815260040161018d90611195565b505050565b6000818152600160205260409020805473ffffffffffffffffffffffffffffffffffffffff1633146102d5576040517f08c379a000000000000000000000000000000000000000000000000000000000815260040161018d90611014565b600881015460ff1615610314576040517f08c379a000000000000000000000000000000000000000000000000000000000815260040161018d9061115e565b6008810154610100900460ff1615610358576040517f08c379a000000000000000000000000000000000000000000000000000000000815260040161018d90610fdd565b6008810180547fffffffffffffffffffffffffffffffffffffffffffffffffffffffffffff00ff1661010017905560018101546004808301546040517fa9059cbb00000000000000000000000000000000000000000000000000000000815273ffffffffffffffffffffffffffffffffffffffff9093169263a9059cbb926103e4923392909101610fb7565b602060405180830381600087803b1580156103fe57600080fd5b505af1158015610412573d6000803e3d6000fd5b505050506040513d601f19601f820116820180604052508101906104369190610ee9565b5060405182907f61b9399f2f0f32ca39ce8d7be32caed5ec22fe07a6daba3a467ed479ec60658290600090a25050565b60005473ffffffffffffffffffffffffffffffffffffffff1681565b6000818152600160205260409020600881015460ff16156104cf576040517f08c379a000000000000000000000000000000000000000000000000000000000815260040161018d9061115e565b6008810154610100900460ff1615610513576040517f08c379a000000000000000000000000000000000000000000000000000000000815260040161018d906110f0565b8060070154421115610551576040517f08c379a000000000000000000000000000000000000000000000000000000000815260040161018d9061104b565b6008810180547fffffffffffffffffffffffffffffffffffffffffffffffffffffffffffffff001660019081179091558101546004808301546040517f095ea7b300000000000000000000000000000000000000000000000000000000815273ffffffffffffffffffffffffffffffffffffffff9093169263095ea7b3926105fd927f000000000000000000000000000000000000000000000000000000000000000092909101610fb7565b602060405180830381600087803b15801561061757600080fd5b505af115801561062b573d6000803e3d6000fd5b505050506040513d601f19601f8201168201806040525081019061064f9190610ee9565b506040805161010081018252600183015473ffffffffffffffffffffffffffffffffffffffff90811682526002840154808216602084015274010000000000000000000000000000000000000000900462ffffff16828401528354811660608301524261025801608083015260048085015460a0840152600585015460c0840152600060e0840181905293517f414bf3890000000000000000000000000000000000000000000000000000000081527f00000000000000000000000000000000000000000000000000000000000000009092169263414bf389926107339201611203565b602060405180830381600087803b15801561074d57600080fd5b505af1158015610761573d6000803e3d6000fd5b505050506040513d601f19601f820116820180604052508101906107859190610f24565b9050827f9947370f1e808dd40de986fca744d8715d4d7aa575359f77a7bdeeb887f590ea826040516107b79190611356565b60405180910390a2505050565b6107cc610d9e565b50600090815260016020818152604092839020835161018081018552815473ffffffffffffffffffffffffffffffffffffffff90811682529382015484169281019290925260028101548084169483019490945262ffffff7401000000000000000000000000000000000000000094859004166060830152600381015483166080830152600481015460a0830152600581015460c0830152600681015492831660e083015260ff9390920483161515610100808301919091526007830154610120830152600890920154808416151561014083015291909104909116151561016082015290565b60008086116108ee576040517f08c379a000000000000000000000000000000000000000000000000000000000815260040161018d906111cc565b600082118015610901575062278d008211155b610937576040517f08c379a000000000000000000000000000000000000000000000000000000000815260040161018d90611082565b6040517f23b872dd00000000000000000000000000000000000000000000000000000000815260009073ffffffffffffffffffffffffffffffffffffffff8c16906323b872dd9061099090339030908c90600401610f86565b602060405180830381600087803b1580156109aa57600080fd5b505af11580156109be573d6000803e3d6000fd5b505050506040513d601f19601f820116820180604052508101906109e29190610ee9565b905080610a1b576040517f08c379a000000000000000000000000000000000000000000000000000000000815260040161018d906110b9565b600260008154809291906001019190505591506040518061018001604052803373ffffffffffffffffffffffffffffffffffffffff1681526020018c73ffffffffffffffffffffffffffffffffffffffff1681526020018b73ffffffffffffffffffffffffffffffffffffffff1681526020018a62ffffff1681526020018973ffffffffffffffffffffffffffffffffffffffff1681526020018881526020018781526020018673ffffffffffffffffffffffffffffffffffffffff16815260200185151581526020018442018152602001600015158152602001600015158152506001600084815260200190815260200160002060008201518160000160006101000a81548173ffffffffffffffffffffffffffffffffffffffff021916908373ffffffffffffffffffffffffffffffffffffffff16021790555060208201518160010160006101000a81548173ffffffffffffffffffffffffffffffffffffffff021916908373ffffffffffffffffffffffffffffffffffffffff16021790555060408201518160020160006101000a81548173ffffffffffffffffffffffffffffffffffffffff021916908373ffffffffffffffffffffffffffffffffffffffff16021790555060608201518160020160146101000a81548162ffffff021916908362ffffff16021790555060808201518160030160006101000a81548173ffffffffffffffffffffffffffffffffffffffff021916908373ffffffffffffffffffffffffffffffffffffffff16021790555060a0820151816004015560c0820151816005015560e08201518160060160006101000a81548173ffffffffffffffffffffffffffffffffffffffff021916908373ffffffffffffffffffffffffffffffffffffffff1602179055506101008201518160060160146101000a81548160ff02191690831515021790555061012082015181600701556101408201518160080160006101000a81548160ff0219169083151502179055506101608201518160080160016101000a81548160ff0219169083151502179055509050503373ffffffffffffffffffffffffffffffffffffffff16827f28eb86fd03c9bd96a8a83e4a46ab2ad257b70cea893d98ad6d482e96aa25fad089604051610d649190611356565b60405180910390a3509998505050505050505050565b7f000000000000000000000000000000000000000000000000000000000000000081565b6040805161018081018252600080825260208201819052918101829052606081018290526080810182905260a0810182905260c0810182905260e0810182905261010081018290526101208101829052610140810182905261016081019190915290565b60008060008060008060008060006101208a8c031215610e20578485fd5b8935610e2b8161135f565b985060208a0135610e3b8161135f565b975060408a013562ffffff81168114610e52578586fd5b965060608a0135610e628161135f565b955060808a0135945060a08a0135935060c08a0135610e808161135f565b925060e08a0135610e9081611384565b809250506101008a013590509295985092959850929598565b600080600060608486031215610ebd578283fd5b8335610ec88161135f565b92506020840135610ed88161135f565b929592945050506040919091013590565b600060208284031215610efa578081fd5b8151610f0581611384565b9392505050565b600060208284031215610f1d578081fd5b5035919050565b600060208284031215610f35578081fd5b5051919050565b73ffffffffffffffffffffffffffffffffffffffff169052565b15159052565b62ffffff169052565b73ffffffffffffffffffffffffffffffffffffffff91909116815260200190565b73ffffffffffffffffffffffffffffffffffffffff9384168152919092166020820152604081019190915260600190565b73ffffffffffffffffffffffffffffffffffffffff929092168252602082015260400190565b60208082526011908201527f616c72656164792063616e63656c6c6564000000000000000000000000000000604082015260600190565b60208082526009908201527f6e6f74206d616b65720000000000000000000000000000000000000000000000604082015260600190565b60208082526007908201527f6578706972656400000000000000000000000000000000000000000000000000604082015260600190565b6020808252600b908201527f696e76616c69642054544c000000000000000000000000000000000000000000604082015260600190565b60208082526013908201527f7472616e7366657246726f6d206661696c656400000000000000000000000000604082015260600190565b60208082526009908201527f63616e63656c6c65640000000000000000000000000000000000000000000000604082015260600190565b60208082526009908201527f6e6f74206f776e65720000000000000000000000000000000000000000000000604082015260600190565b6020808252600e908201527f616c72656164792066696c6c6564000000000000000000000000000000000000604082015260600190565b6020808252600f908201527f7769746864726177206661696c65640000000000000000000000000000000000604082015260600190565b6020808252600c908201527f616d6f756e74496e203d20300000000000000000000000000000000000000000604082015260600190565b60006101008201905073ffffffffffffffffffffffffffffffffffffffff80845116835280602085015116602084015262ffffff60408501511660408401528060608501511660608401526080840151608084015260a084015160a084015260c084015160c08401528060e08501511660e08401525092915050565b600061018082019050611293828451610f3c565b60208301516112a56020840182610f3c565b5060408301516112b86040840182610f3c565b5060608301516112cb6060840182610f5c565b5060808301516112de6080840182610f3c565b5060a083015160a083015260c083015160c083015260e083015161130560e0840182610f3c565b506101008084015161131982850182610f56565b505061012083810151908301526101408084015161133982850182610f56565b50506101608084015161134e82850182610f56565b505092915050565b90815260200190565b73ffffffffffffffffffffffffffffffffffffffff8116811461138157600080fd5b50565b801515811461138157600080fdfea164736f6c6343000706000a",
    "linkReferences": {},
    "deployedLinkReferences": {}
}