{
  "_format": "hh-sol-artifact-1",
  "contractName": "LimitOrderExecutor",
  "sourceName": "contracts/LimitOrder.sol",
  "abi": [
    {
      "inputs": [
        {
          "internalType": "address",
          "name": "_router",
          "type": "address"
        }
      ],
      "stateMutability": "nonpayable",
      "type": "constructor"
    },
    {
      "anonymous": false,
      "inputs": [
        {
          "indexed": true,
          "internalType": "uint256",
          "name": "orderId",
          "type": "uint256"
        }
      ],
      "name": "OrderCancelled",
      "type": "event"
    },
    {
      "anonymous": false,
      "inputs": [
        {
          "indexed": true,
          "internalType": "uint256",
          "name": "orderId",
          "type": "uint256"
        },
        {
          "indexed": true,
          "internalType": "address",
          "name": "maker",
          "type": "address"
        },
        {
          "indexed": false,
          "internalType": "uint256",
          "name": "amountIn",
          "type": "uint256"
        }
      ],
      "name": "OrderCreated",
      "type": "event"
    },
    {
      "anonymous": false,
      "inputs": [
        {
          "indexed": true,
          "internalType": "uint256",
          "name": "orderId",
          "type": "uint256"
        },
        {
          "indexed": false,
          "internalType": "uint256",
          "name": "amountOut",
          "type": "uint256"
        }
      ],
      "name": "OrderExecuted",
      "type": "event"
    },
    {
      "inputs": [
        {
          "internalType": "uint256",
          "name": "orderId",
          "type": "uint256"
        }
      ],
      "name": "cancelOrder",
      "outputs": [],
      "stateMutability": "nonpayable",
      "type": "function"
    },
    {
      "inputs": [
        {
          "internalType": "address",
          "name": "tokenIn",
          "type": "address"
        },
        {
          "internalType": "address",
          "name": "tokenOut",
          "type": "address"
        },
        {
          "internalType": "uint24",
          "name": "poolFee",
          "type": "uint24"
        },
        {
          "internalType": "address",
          "name": "pool",
          "type": "address"
        },
        {
          "internalType": "uint256",
          "name": "amountIn",
          "type": "uint256"
        },
        {
          "internalType": "uint256",
          "name": "amountOutMin",
          "type": "uint256"
        },
        {
          "internalType": "uint160",
          "name": "targetSqrtPriceX96",
          "type": "uint160"
        },
        {
          "internalType": "bool",
          "name": "triggerAbove",
          "type": "bool"
        },
        {
          "internalType": "uint256",
          "name": "ttlSeconds",
          "type": "uint256"
        }
      ],
      "name": "depositAndCreateOrder",
      "outputs": [
        {
          "internalType": "uint256",
          "name": "orderId",
          "type": "uint256"
        }
      ],
      "stateMutability": "nonpayable",
      "type": "function"
    },
    {
      "inputs": [
        {
          "internalType": "uint256",
          "name": "orderId",
          "type": "uint256"
        }
      ],
      "name": "executeOrder",
      "outputs": [],
      "stateMutability": "nonpayable",
      "type": "function"
    },
    {
      "inputs": [
        {
          "internalType": "uint256",
          "name": "orderId",
          "type": "uint256"
        }
      ],
      "name": "getOrder",
      "outputs": [
        {
          "components": [
            {
              "internalType": "address",
              "name": "maker",
              "type": "address"
            },
            {
              "internalType": "address",
              "name": "tokenIn",
              "type": "address"
            },
            {
              "internalType": "address",
              "name": "tokenOut",
              "type": "address"
            },
            {
              "internalType": "uint24",
              "name": "poolFee",
              "type": "uint24"
            },
            {
              "internalType": "address",
              "name": "pool",
              "type": "address"
            },
            {
              "internalType": "uint256",
              "name": "amountIn",
              "type": "uint256"
            },
            {
              "internalType": "uint256",
              "name": "amountOutMin",
              "type": "uint256"
            },
            {
              "internalType": "uint160",
              "name": "targetSqrtPriceX96",
              "type": "uint160"
            },
            {
              "internalType": "bool",
              "name": "triggerAbove",
              "type": "bool"
            },
            {
              "internalType": "uint256",
              "name": "expiry",
              "type": "uint256"
            },
            {
              "internalType": "bool",
              "name": "filled",
              "type": "bool"
            },
            {
              "internalType": "bool",
              "name": "cancelled",
              "type": "bool"
            }
          ],
          "internalType": "struct LimitOrderExecutor.Order",
          "name": "",
          "type": "tuple"
        }
      ],
      "stateMutability": "view",
      "type": "function"
    },
    {
      "inputs": [
        {
          "internalType": "address",
          "name": "user",
          "type": "address"
        }
      ],
      "name": "getUserOrders",
      "outputs": [
        {
          "components": [
            {
              "internalType": "address",
              "name": "maker",
              "type": "address"
            },
            {
              "internalType": "address",
              "name": "tokenIn",
              "type": "address"
            },
            {
              "internalType": "address",
              "name": "tokenOut",
              "type": "address"
            },
            {
              "internalType": "uint24",
              "name": "poolFee",
              "type": "uint24"
            },
            {
              "internalType": "address",
              "name": "pool",
              "type": "address"
            },
            {
              "internalType": "uint256",
              "name": "amountIn",
              "type": "uint256"
            },
            {
              "internalType": "uint256",
              "name": "amountOutMin",
              "type": "uint256"
            },
            {
              "internalType": "uint160",
              "name": "targetSqrtPriceX96",
              "type": "uint160"
            },
            {
              "internalType": "bool",
              "name": "triggerAbove",
              "type": "bool"
            },
            {
              "internalType": "uint256",
              "name": "expiry",
              "type": "uint256"
            },
            {
              "internalType": "bool",
              "name": "filled",
              "type": "bool"
            },
            {
              "internalType": "bool",
              "name": "cancelled",
              "type": "bool"
            }
          ],
          "internalType": "struct LimitOrderExecutor.Order[]",
          "name": "",
          "type": "tuple[]"
        }
      ],
      "stateMutability": "view",
      "type": "function"
    },
    {
      "inputs": [],
      "name": "nextOrderId",
      "outputs": [
        {
          "internalType": "uint256",
          "name": "",
          "type": "uint256"
        }
      ],
      "stateMutability": "view",
      "type": "function"
    },
    {
      "inputs": [],
      "name": "owner",
      "outputs": [
        {
          "internalType": "address",
          "name": "",
          "type": "address"
        }
      ],
      "stateMutability": "view",
      "type": "function"
    },
    {
      "inputs": [
        {
          "internalType": "address",
          "name": "token",
          "type": "address"
        },
        {
          "internalType": "address",
          "name": "to",
          "type": "address"
        },
        {
          "internalType": "uint256",
          "name": "amount",
          "type": "uint256"
        }
      ],
      "name": "ownerWithdraw",
      "outputs": [],
      "stateMutability": "nonpayable",
      "type": "function"
    },
    {
      "inputs": [],
      "name": "router",
      "outputs": [
        {
          "internalType": "contract ISwapRouter",
          "name": "",
          "type": "address"
        }
      ],
      "stateMutability": "view",
      "type": "function"
    }
  ],
  "bytecode": "0x60a060405234801561001057600080fd5b5060405161176038038061176083398101604081905261002f9161005d565b60008054336001600160a01b031990911617905560601b6001600160601b031916608052600160035561008b565b60006020828403121561006e578081fd5b81516001600160a01b0381168114610084578182fd5b9392505050565b60805160601c6116ae6100b2600039806108095280610934528061101652506116ae6000f3fe608060405234801561001057600080fd5b50600436106100a35760003560e01c80638da5cb5b11610076578063d09ef2411161005b578063d09ef24114610136578063d4b212ee14610156578063f887ea4014610169576100a3565b80638da5cb5b1461010e57806394f6113414610123576100a3565b80632a58b330146100a85780632bcaa0e2146100c6578063514fcac7146100db57806363c69f08146100ee575b600080fd5b6100b0610171565b6040516100bd9190611665565b60405180910390f35b6100d96100d4366004611166565b610177565b005b6100d96100e93660046111c2565b6102b2565b6101016100fc36600461109c565b6104a1565b6040516100bd919061135f565b61011661069a565b6040516100bd91906112e7565b6100d96101313660046111c2565b6106b6565b6101496101443660046111c2565b6109f8565b6040516100bd9190611650565b6100b06101643660046110bf565b610ae7565b610116611014565b60035481565b60005473ffffffffffffffffffffffffffffffffffffffff1633146101d1576040517f08c379a00000000000000000000000000000000000000000000000000000000081526004016101c8906114f8565b60405180910390fd5b6040517fa9059cbb00000000000000000000000000000000000000000000000000000000815273ffffffffffffffffffffffffffffffffffffffff84169063a9059cbb906102259085908590600401611339565b602060405180830381600087803b15801561023f57600080fd5b505af1158015610253573d6000803e3d6000fd5b505050506040513d601f19601f8201168201806040525081019061027791906111a6565b6102ad576040517f08c379a00000000000000000000000000000000000000000000000000000000081526004016101c890611566565b505050565b6000818152600160205260409020805473ffffffffffffffffffffffffffffffffffffffff163314610310576040517f08c379a00000000000000000000000000000000000000000000000000000000081526004016101c8906113e5565b600881015460ff161561034f576040517f08c379a00000000000000000000000000000000000000000000000000000000081526004016101c89061152f565b6008810154610100900460ff1615610393576040517f08c379a00000000000000000000000000000000000000000000000000000000081526004016101c8906113ae565b6008810180547fffffffffffffffffffffffffffffffffffffffffffffffffffffffffffff00ff1661010017905560018101546004808301546040517fa9059cbb00000000000000000000000000000000000000000000000000000000815273ffffffffffffffffffffffffffffffffffffffff9093169263a9059cbb9261041f923392909101611339565b602060405180830381600087803b15801561043957600080fd5b505af115801561044d573d6000803e3d6000fd5b505050506040513d601f19601f8201168201806040525081019061047191906111a6565b5060405182907f61b9399f2f0f32ca39ce8d7be32caed5ec22fe07a6daba3a467ed479ec60658290600090a25050565b73ffffffffffffffffffffffffffffffffffffffff8116600090815260026020908152604080832080548251818502810185019093528083526060949383018282801561050d57602002820191906000526020600020905b8154815260200190600101908083116104f9575b505050505090506000815167ffffffffffffffff8111801561052e57600080fd5b5060405190808252806020026020018201604052801561056857816020015b610555611038565b81526020019060019003908161054d5790505b50905060005b8251811015610692576001600084838151811061058757fe5b6020908102919091018101518252818101929092526040908101600020815161018081018352815473ffffffffffffffffffffffffffffffffffffffff9081168252600183015481169482019490945260028201548085169382019390935262ffffff7401000000000000000000000000000000000000000093849004166060820152600382015484166080820152600482015460a0820152600582015460c0820152600682015493841660e082015260ff9290930482161515610100808501919091526007820154610120850152600890910154808316151561014085015204161515610160820152825183908390811061067f57fe5b602090810291909101015260010161056e565b509392505050565b60005473ffffffffffffffffffffffffffffffffffffffff1681565b6000818152600160205260409020600881015460ff1615610703576040517f08c379a00000000000000000000000000000000000000000000000000000000081526004016101c89061152f565b6008810154610100900460ff1615610747576040517f08c379a00000000000000000000000000000000000000000000000000000000081526004016101c8906114c1565b8060070154421115610785576040517f08c379a00000000000000000000000000000000000000000000000000000000081526004016101c89061141c565b6008810180547fffffffffffffffffffffffffffffffffffffffffffffffffffffffffffffff001660019081179091558101546004808301546040517f095ea7b300000000000000000000000000000000000000000000000000000000815273ffffffffffffffffffffffffffffffffffffffff9093169263095ea7b392610831927f000000000000000000000000000000000000000000000000000000000000000092909101611339565b602060405180830381600087803b15801561084b57600080fd5b505af115801561085f573d6000803e3d6000fd5b505050506040513d601f19601f8201168201806040525081019061088391906111a6565b506040805161010081018252600183015473ffffffffffffffffffffffffffffffffffffffff90811682526002840154808216602084015274010000000000000000000000000000000000000000900462ffffff16828401528354811660608301524261025801608083015260048085015460a0840152600585015460c0840152600060e0840181905293517f414bf3890000000000000000000000000000000000000000000000000000000081527f00000000000000000000000000000000000000000000000000000000000000009092169263414bf3899261096792016115d4565b602060405180830381600087803b15801561098157600080fd5b505af1158015610995573d6000803e3d6000fd5b505050506040513d601f19601f820116820180604052508101906109b991906111da565b9050827f9947370f1e808dd40de986fca744d8715d4d7aa575359f77a7bdeeb887f590ea826040516109eb9190611665565b60405180910390a2505050565b610a00611038565b50600090815260016020818152604092839020835161018081018552815473ffffffffffffffffffffffffffffffffffffffff90811682529382015484169281019290925260028101548084169483019490945262ffffff7401000000000000000000000000000000000000000094859004166060830152600381015483166080830152600481015460a0830152600581015460c0830152600681015492831660e083015260ff9390920483161515610100808301919091526007830154610120830152600890920154808416151561014083015291909104909116151561016082015290565b6000808611610b22576040517f08c379a00000000000000000000000000000000000000000000000000000000081526004016101c89061159d565b600082118015610b35575062278d008211155b610b6b576040517f08c379a00000000000000000000000000000000000000000000000000000000081526004016101c890611453565b6040517f23b872dd00000000000000000000000000000000000000000000000000000000815260009073ffffffffffffffffffffffffffffffffffffffff8c16906323b872dd90610bc490339030908c90600401611308565b602060405180830381600087803b158015610bde57600080fd5b505af1158015610bf2573d6000803e3d6000fd5b505050506040513d601f19601f82011682018060405250810190610c1691906111a6565b905080610c4f576040517f08c379a00000000000000000000000000000000000000000000000000000000081526004016101c89061148a565b600360008154809291906001019190505591506040518061018001604052803373ffffffffffffffffffffffffffffffffffffffff1681526020018c73ffffffffffffffffffffffffffffffffffffffff1681526020018b73ffffffffffffffffffffffffffffffffffffffff1681526020018a62ffffff1681526020018973ffffffffffffffffffffffffffffffffffffffff1681526020018881526020018781526020018673ffffffffffffffffffffffffffffffffffffffff16815260200185151581526020018442018152602001600015158152602001600015158152506001600084815260200190815260200160002060008201518160000160006101000a81548173ffffffffffffffffffffffffffffffffffffffff021916908373ffffffffffffffffffffffffffffffffffffffff16021790555060208201518160010160006101000a81548173ffffffffffffffffffffffffffffffffffffffff021916908373ffffffffffffffffffffffffffffffffffffffff16021790555060408201518160020160006101000a81548173ffffffffffffffffffffffffffffffffffffffff021916908373ffffffffffffffffffffffffffffffffffffffff16021790555060608201518160020160146101000a81548162ffffff021916908362ffffff16021790555060808201518160030160006101000a81548173ffffffffffffffffffffffffffffffffffffffff021916908373ffffffffffffffffffffffffffffffffffffffff16021790555060a0820151816004015560c0820151816005015560e08201518160060160006101000a81548173ffffffffffffffffffffffffffffffffffffffff021916908373ffffffffffffffffffffffffffffffffffffffff1602179055506101008201518160060160146101000a81548160ff02191690831515021790555061012082015181600701556101408201518160080160006101000a81548160ff0219169083151502179055506101608201518160080160016101000a81548160ff021916908315150217905550905050600260003373ffffffffffffffffffffffffffffffffffffffff1673ffffffffffffffffffffffffffffffffffffffff1681526020019081526020016000208290806001815401808255809150506001900390600052602060002001600090919091909150553373ffffffffffffffffffffffffffffffffffffffff16827f28eb86fd03c9bd96a8a83e4a46ab2ad257b70cea893d98ad6d482e96aa25fad089604051610ffe9190611665565b60405180910390a3509998505050505050505050565b7f000000000000000000000000000000000000000000000000000000000000000081565b6040805161018081018252600080825260208201819052918101829052606081018290526080810182905260a0810182905260c0810182905260e0810182905261010081018290526101208101829052610140810182905261016081019190915290565b6000602082840312156110ad578081fd5b81356110b88161166e565b9392505050565b60008060008060008060008060006101208a8c0312156110dd578485fd5b89356110e88161166e565b985060208a01356110f88161166e565b975060408a013562ffffff8116811461110f578586fd5b965060608a013561111f8161166e565b955060808a0135945060a08a0135935060c08a013561113d8161166e565b925060e08a013561114d81611693565b809250506101008a013590509295985092959850929598565b60008060006060848603121561117a578283fd5b83356111858161166e565b925060208401356111958161166e565b929592945050506040919091013590565b6000602082840312156111b7578081fd5b81516110b881611693565b6000602082840312156111d3578081fd5b5035919050565b6000602082840312156111eb578081fd5b5051919050565b73ffffffffffffffffffffffffffffffffffffffff169052565b15159052565b61121d8282516111f2565b602081015161122f60208401826111f2565b50604081015161124260408401826111f2565b50606081015161125560608401826112de565b50608081015161126860808401826111f2565b5060a081015160a083015260c081015160c083015260e081015161128f60e08401826111f2565b50610100808201516112a38285018261120c565b50506101208181015190830152610140808201516112c38285018261120c565b5050610160808201516112d88285018261120c565b50505050565b62ffffff169052565b73ffffffffffffffffffffffffffffffffffffffff91909116815260200190565b73ffffffffffffffffffffffffffffffffffffffff9384168152919092166020820152604081019190915260600190565b73ffffffffffffffffffffffffffffffffffffffff929092168252602082015260400190565b6020808252825182820181905260009190848201906040850190845b818110156113a25761138e838551611212565b92840192610180929092019160010161137b565b50909695505050505050565b60208082526011908201527f616c72656164792063616e63656c6c6564000000000000000000000000000000604082015260600190565b60208082526009908201527f6e6f74206d616b65720000000000000000000000000000000000000000000000604082015260600190565b60208082526007908201527f6578706972656400000000000000000000000000000000000000000000000000604082015260600190565b6020808252600b908201527f696e76616c69642054544c000000000000000000000000000000000000000000604082015260600190565b60208082526013908201527f7472616e7366657246726f6d206661696c656400000000000000000000000000604082015260600190565b60208082526009908201527f63616e63656c6c65640000000000000000000000000000000000000000000000604082015260600190565b60208082526009908201527f6e6f74206f776e65720000000000000000000000000000000000000000000000604082015260600190565b6020808252600e908201527f616c72656164792066696c6c6564000000000000000000000000000000000000604082015260600190565b6020808252600f908201527f7769746864726177206661696c65640000000000000000000000000000000000604082015260600190565b6020808252600c908201527f616d6f756e74496e203d20300000000000000000000000000000000000000000604082015260600190565b60006101008201905073ffffffffffffffffffffffffffffffffffffffff80845116835280602085015116602084015262ffffff60408501511660408401528060608501511660608401526080840151608084015260a084015160a084015260c084015160c08401528060e08501511660e08401525092915050565b610180810161165f8284611212565b92915050565b90815260200190565b73ffffffffffffffffffffffffffffffffffffffff8116811461169057600080fd5b50565b801515811461169057600080fdfea164736f6c6343000706000a",
  "linkReferences": {},
  "deployedLinkReferences": {}
}