{
  "_format": "hh-sol-artifact-1",
  "contractName": "LimitOrderExecutor",
  "sourceName": "contracts/LimitOrder.sol",
  "abi": [
    {
      "inputs": [
        {
          "internalType": "address",
          "name": "_router",
          "type": "address"
        }
      ],
      "stateMutability": "nonpayable",
      "type": "constructor"
    },
    {
      "anonymous": false,
      "inputs": [
        {
          "indexed": true,
          "internalType": "uint256",
          "name": "orderId",
          "type": "uint256"
        },
        {
          "indexed": true,
          "internalType": "address",
          "name": "maker",
          "type": "address"
        },
        {
          "indexed": false,
          "internalType": "uint256",
          "name": "amountRefunded",
          "type": "uint256"
        }
      ],
      "name": "ExpiredOrderClaimed",
      "type": "event"
    },
    {
      "anonymous": false,
      "inputs": [
        {
          "indexed": true,
          "internalType": "uint256",
          "name": "orderId",
          "type": "uint256"
        }
      ],
      "name": "OrderCancelled",
      "type": "event"
    },
    {
      "anonymous": false,
      "inputs": [
        {
          "indexed": true,
          "internalType": "uint256",
          "name": "orderId",
          "type": "uint256"
        },
        {
          "indexed": true,
          "internalType": "address",
          "name": "maker",
          "type": "address"
        },
        {
          "indexed": false,
          "internalType": "uint256",
          "name": "amountIn",
          "type": "uint256"
        },
        {
          "indexed": false,
          "internalType": "enum LimitOrderExecutor.OrderType",
          "name": "orderType",
          "type": "uint8"
        }
      ],
      "name": "OrderCreated",
      "type": "event"
    },
    {
      "anonymous": false,
      "inputs": [
        {
          "indexed": true,
          "internalType": "uint256",
          "name": "orderId",
          "type": "uint256"
        },
        {
          "indexed": false,
          "internalType": "uint256",
          "name": "amountOut",
          "type": "uint256"
        }
      ],
      "name": "OrderExecuted",
      "type": "event"
    },
    {
      "anonymous": false,
      "inputs": [
        {
          "indexed": true,
          "internalType": "uint256",
          "name": "orderId",
          "type": "uint256"
        },
        {
          "indexed": true,
          "internalType": "address",
          "name": "maker",
          "type": "address"
        }
      ],
      "name": "OrderExpired",
      "type": "event"
    },
    {
      "inputs": [
        {
          "internalType": "uint256",
          "name": "orderId",
          "type": "uint256"
        }
      ],
      "name": "cancelOrder",
      "outputs": [],
      "stateMutability": "nonpayable",
      "type": "function"
    },
    {
      "inputs": [
        {
          "internalType": "address",
          "name": "tokenIn",
          "type": "address"
        },
        {
          "internalType": "address",
          "name": "tokenOut",
          "type": "address"
        },
        {
          "internalType": "uint24",
          "name": "poolFee",
          "type": "uint24"
        },
        {
          "internalType": "address",
          "name": "pool",
          "type": "address"
        },
        {
          "internalType": "uint256",
          "name": "amountIn",
          "type": "uint256"
        },
        {
          "internalType": "uint256",
          "name": "amountOutMin",
          "type": "uint256"
        },
        {
          "internalType": "uint160",
          "name": "targetSqrtPriceX96",
          "type": "uint160"
        },
        {
          "internalType": "bool",
          "name": "triggerAbove",
          "type": "bool"
        },
        {
          "internalType": "uint256",
          "name": "ttlSeconds",
          "type": "uint256"
        },
        {
          "internalType": "enum LimitOrderExecutor.OrderType",
          "name": "orderType",
          "type": "uint8"
        }
      ],
      "name": "depositAndCreateOrder",
      "outputs": [
        {
          "internalType": "uint256",
          "name": "orderId",
          "type": "uint256"
        }
      ],
      "stateMutability": "nonpayable",
      "type": "function"
    },
    {
      "inputs": [
        {
          "internalType": "uint256",
          "name": "fromId",
          "type": "uint256"
        },
        {
          "internalType": "uint256",
          "name": "toId",
          "type": "uint256"
        }
      ],
      "name": "distributeExpiredOrders",
      "outputs": [],
      "stateMutability": "nonpayable",
      "type": "function"
    },
    {
      "inputs": [
        {
          "internalType": "uint256",
          "name": "orderId",
          "type": "uint256"
        }
      ],
      "name": "executeOrder",
      "outputs": [],
      "stateMutability": "nonpayable",
      "type": "function"
    },
    {
      "inputs": [
        {
          "internalType": "address",
          "name": "pool",
          "type": "address"
        },
        {
          "internalType": "address",
          "name": "tokenIn",
          "type": "address"
        },
        {
          "internalType": "address",
          "name": "tokenOut",
          "type": "address"
        }
      ],
      "name": "getCurrentPriceRatio",
      "outputs": [
        {
          "internalType": "uint256",
          "name": "ratio",
          "type": "uint256"
        }
      ],
      "stateMutability": "view",
      "type": "function"
    },
    {
      "inputs": [
        {
          "internalType": "uint256",
          "name": "orderId",
          "type": "uint256"
        }
      ],
      "name": "getOrder",
      "outputs": [
        {
          "components": [
            {
              "internalType": "address",
              "name": "maker",
              "type": "address"
            },
            {
              "internalType": "address",
              "name": "tokenIn",
              "type": "address"
            },
            {
              "internalType": "address",
              "name": "tokenOut",
              "type": "address"
            },
            {
              "internalType": "uint24",
              "name": "poolFee",
              "type": "uint24"
            },
            {
              "internalType": "address",
              "name": "pool",
              "type": "address"
            },
            {
              "internalType": "uint256",
              "name": "amountIn",
              "type": "uint256"
            },
            {
              "internalType": "uint256",
              "name": "amountOutMin",
              "type": "uint256"
            },
            {
              "internalType": "uint160",
              "name": "targetSqrtPriceX96",
              "type": "uint160"
            },
            {
              "internalType": "bool",
              "name": "triggerAbove",
              "type": "bool"
            },
            {
              "internalType": "uint256",
              "name": "expiry",
              "type": "uint256"
            },
            {
              "internalType": "bool",
              "name": "filled",
              "type": "bool"
            },
            {
              "internalType": "bool",
              "name": "cancelled",
              "type": "bool"
            },
            {
              "internalType": "bool",
              "name": "claimed",
              "type": "bool"
            },
            {
              "internalType": "enum LimitOrderExecutor.OrderType",
              "name": "orderType",
              "type": "uint8"
            }
          ],
          "internalType": "struct LimitOrderExecutor.Order",
          "name": "",
          "type": "tuple"
        }
      ],
      "stateMutability": "view",
      "type": "function"
    },
    {
      "inputs": [
        {
          "internalType": "address",
          "name": "user",
          "type": "address"
        }
      ],
      "name": "getUserOrders",
      "outputs": [
        {
          "components": [
            {
              "internalType": "address",
              "name": "maker",
              "type": "address"
            },
            {
              "internalType": "address",
              "name": "tokenIn",
              "type": "address"
            },
            {
              "internalType": "address",
              "name": "tokenOut",
              "type": "address"
            },
            {
              "internalType": "uint24",
              "name": "poolFee",
              "type": "uint24"
            },
            {
              "internalType": "address",
              "name": "pool",
              "type": "address"
            },
            {
              "internalType": "uint256",
              "name": "amountIn",
              "type": "uint256"
            },
            {
              "internalType": "uint256",
              "name": "amountOutMin",
              "type": "uint256"
            },
            {
              "internalType": "uint160",
              "name": "targetSqrtPriceX96",
              "type": "uint160"
            },
            {
              "internalType": "bool",
              "name": "triggerAbove",
              "type": "bool"
            },
            {
              "internalType": "uint256",
              "name": "expiry",
              "type": "uint256"
            },
            {
              "internalType": "bool",
              "name": "filled",
              "type": "bool"
            },
            {
              "internalType": "bool",
              "name": "cancelled",
              "type": "bool"
            },
            {
              "internalType": "bool",
              "name": "claimed",
              "type": "bool"
            },
            {
              "internalType": "enum LimitOrderExecutor.OrderType",
              "name": "orderType",
              "type": "uint8"
            }
          ],
          "internalType": "struct LimitOrderExecutor.Order[]",
          "name": "",
          "type": "tuple[]"
        }
      ],
      "stateMutability": "view",
      "type": "function"
    },
    {
      "inputs": [],
      "name": "nextOrderId",
      "outputs": [
        {
          "internalType": "uint256",
          "name": "",
          "type": "uint256"
        }
      ],
      "stateMutability": "view",
      "type": "function"
    },
    {
      "inputs": [],
      "name": "owner",
      "outputs": [
        {
          "internalType": "address",
          "name": "",
          "type": "address"
        }
      ],
      "stateMutability": "view",
      "type": "function"
    },
    {
      "inputs": [
        {
          "internalType": "address",
          "name": "token",
          "type": "address"
        },
        {
          "internalType": "address",
          "name": "to",
          "type": "address"
        },
        {
          "internalType": "uint256",
          "name": "amount",
          "type": "uint256"
        }
      ],
      "name": "ownerWithdraw",
      "outputs": [],
      "stateMutability": "nonpayable",
      "type": "function"
    },
    {
      "inputs": [],
      "name": "router",
      "outputs": [
        {
          "internalType": "contract ISwapRouter",
          "name": "",
          "type": "address"
        }
      ],
      "stateMutability": "view",
      "type": "function"
    }
  ],
  "bytecode": "0x60a060405234801561001057600080fd5b5060405161209338038061209383398101604081905261002f9161005d565b60008054336001600160a01b031990911617905560601b6001600160601b031916608052600160035561008b565b60006020828403121561006e578081fd5b81516001600160a01b0381168114610084578182fd5b9392505050565b60805160601c611fe16100b2600039806109715280610a9c52806116c55250611fe16000f3fe608060405234801561001057600080fd5b50600436106100c95760003560e01c806394f6113411610081578063d3ae39831161005b578063d3ae39831461018f578063ea8c4d56146101a2578063f887ea40146101b5576100c9565b806394f6113414610149578063cda04a571461015c578063d09ef2411461016f576100c9565b8063514fcac7116100b2578063514fcac71461010157806363c69f08146101145780638da5cb5b14610134576100c9565b80632a58b330146100ce5780632bcaa0e2146100ec575b600080fd5b6100d66101bd565b6040516100e39190611f84565b60405180910390f35b6100ff6100fa3660046118ba565b6101c3565b005b6100ff61010f3660046119b2565b6102fe565b61012761012236600461177a565b6104ed565b6040516100e39190611ba2565b61013c610724565b6040516100e39190611b2a565b6100ff6101573660046119b2565b610740565b6100d661016a3660046117b9565b610b62565b61018261017d3660046119b2565b610e3b565b6040516100e39190611f6f565b6100ff61019d3660046119e2565b610f64565b6100d66101b0366004611803565b6111c1565b61013c6116c3565b60035481565b60005473ffffffffffffffffffffffffffffffffffffffff16331461021d576040517f08c379a000000000000000000000000000000000000000000000000000000000815260040161021490611de0565b60405180910390fd5b6040517fa9059cbb00000000000000000000000000000000000000000000000000000000815273ffffffffffffffffffffffffffffffffffffffff84169063a9059cbb906102719085908590600401611b7c565b602060405180830381600087803b15801561028b57600080fd5b505af115801561029f573d6000803e3d6000fd5b505050506040513d601f19601f820116820180604052508101906102c391906118fa565b6102f9576040517f08c379a000000000000000000000000000000000000000000000000000000000815260040161021490611e85565b505050565b6000818152600160205260409020805473ffffffffffffffffffffffffffffffffffffffff16331461035c576040517f08c379a000000000000000000000000000000000000000000000000000000000815260040161021490611c28565b600881015460ff161561039b576040517f08c379a000000000000000000000000000000000000000000000000000000000815260040161021490611e4e565b6008810154610100900460ff16156103df576040517f08c379a000000000000000000000000000000000000000000000000000000000815260040161021490611bf1565b6008810180547fffffffffffffffffffffffffffffffffffffffffffffffffffffffffffff00ff1661010017905560018101546004808301546040517fa9059cbb00000000000000000000000000000000000000000000000000000000815273ffffffffffffffffffffffffffffffffffffffff9093169263a9059cbb9261046b923392909101611b7c565b602060405180830381600087803b15801561048557600080fd5b505af1158015610499573d6000803e3d6000fd5b505050506040513d601f19601f820116820180604052508101906104bd91906118fa565b5060405182907f61b9399f2f0f32ca39ce8d7be32caed5ec22fe07a6daba3a467ed479ec60658290600090a25050565b73ffffffffffffffffffffffffffffffffffffffff8116600090815260026020908152604080832080548251818502810185019093528083526060949383018282801561055957602002820191906000526020600020905b815481526020019060010190808311610545575b505050505090506000815167ffffffffffffffff8111801561057a57600080fd5b506040519080825280602002602001820160405280156105b457816020015b6105a16116e7565b8152602001906001900390816105995790505b50905060005b825181101561071a57600160008483815181106105d357fe5b602090810291909101810151825281810192909252604090810160002081516101c081018352815473ffffffffffffffffffffffffffffffffffffffff908116825260018084015482169583019590955260028301548082169483019490945262ffffff7401000000000000000000000000000000000000000094859004166060830152600383015481166080830152600483015460a0830152600583015460c0830152600683015490811660e083015260ff93900483161515610100808301919091526007830154610120830152600883015480851615156101408401529081048416151561016083015262010000810484161515610180830152909391926101a0850192630100000090920416908111156106ec57fe5b60018111156106f757fe5b8152505082828151811061070757fe5b60209081029190910101526001016105ba565b509150505b919050565b60005473ffffffffffffffffffffffffffffffffffffffff1681565b6000818152600160205260409020600881015460ff161561078d576040517f08c379a000000000000000000000000000000000000000000000000000000000815260040161021490611e4e565b6008810154610100900460ff16156107d1576040517f08c379a000000000000000000000000000000000000000000000000000000000815260040161021490611da9565b806007015442111561080f576040517f08c379a000000000000000000000000000000000000000000000000000000000815260040161021490611c5f565b6003810154600182015460028301546000926108489273ffffffffffffffffffffffffffffffffffffffff918216929082169116610b62565b600683015490915060009074010000000000000000000000000000000000000000900460ff1661089557600683015473ffffffffffffffffffffffffffffffffffffffff168211156108b4565b600683015473ffffffffffffffffffffffffffffffffffffffff168210155b9050806108ed576040517f08c379a000000000000000000000000000000000000000000000000000000000815260040161021490611ccd565b6008830180547fffffffffffffffffffffffffffffffffffffffffffffffffffffffffffffff001660019081179091558301546004808501546040517f095ea7b300000000000000000000000000000000000000000000000000000000815273ffffffffffffffffffffffffffffffffffffffff9093169263095ea7b392610999927f000000000000000000000000000000000000000000000000000000000000000092909101611b7c565b602060405180830381600087803b1580156109b357600080fd5b505af11580156109c7573d6000803e3d6000fd5b505050506040513d601f19601f820116820180604052508101906109eb91906118fa565b506040805161010081018252600185015473ffffffffffffffffffffffffffffffffffffffff90811682526002860154808216602084015274010000000000000000000000000000000000000000900462ffffff16828401528554811660608301524261025801608083015260048087015460a0840152600587015460c0840152600060e0840181905293517f414bf3890000000000000000000000000000000000000000000000000000000081527f00000000000000000000000000000000000000000000000000000000000000009092169263414bf38992610acf9201611ef3565b602060405180830381600087803b158015610ae957600080fd5b505af1158015610afd573d6000803e3d6000fd5b505050506040513d601f19601f82011682018060405250810190610b2191906119ca565b9050847f9947370f1e808dd40de986fca744d8715d4d7aa575359f77a7bdeeb887f590ea82604051610b539190611f84565b60405180910390a25050505050565b6000808473ffffffffffffffffffffffffffffffffffffffff16633850c7bd6040518163ffffffff1660e01b815260040160e06040518083038186803b158015610bab57600080fd5b505afa158015610bbf573d6000803e3d6000fd5b505050506040513d601f19601f82011682018060405250810190610be39190611916565b505050505050905060008573ffffffffffffffffffffffffffffffffffffffff16630dfe16816040518163ffffffff1660e01b815260040160206040518083038186803b158015610c3357600080fd5b505afa158015610c47573d6000803e3d6000fd5b505050506040513d601f19601f82011682018060405250810190610c6b919061179d565b905060008673ffffffffffffffffffffffffffffffffffffffff1663d21220a76040518163ffffffff1660e01b815260040160206040518083038186803b158015610cb557600080fd5b505afa158015610cc9573d6000803e3d6000fd5b505050506040513d601f19601f82011682018060405250810190610ced919061179d565b905073ffffffffffffffffffffffffffffffffffffffff808416800290878116908416148015610d4857508173ffffffffffffffffffffffffffffffffffffffff168673ffffffffffffffffffffffffffffffffffffffff16145b15610d6257670de0b6b3a7640000810260c01c9450610e30565b8173ffffffffffffffffffffffffffffffffffffffff168773ffffffffffffffffffffffffffffffffffffffff16148015610dc857508273ffffffffffffffffffffffffffffffffffffffff168673ffffffffffffffffffffffffffffffffffffffff16145b15610dfe57807f0de0b6b3a764000000000000000000000000000000000000000000000000000081610df657fe5b049450610e30565b6040517f08c379a000000000000000000000000000000000000000000000000000000000815260040161021490611d3b565b505050509392505050565b610e436116e7565b60008281526001602081815260409283902083516101c081018552815473ffffffffffffffffffffffffffffffffffffffff908116825282850154811693820193909352600282015480841695820195909552740100000000000000000000000000000000000000009485900462ffffff166060820152600382015483166080820152600482015460a0820152600582015460c0820152600682015492831660e08201529390910460ff908116151561010080860191909152600783015461012086015260088301548083161515610140870152908104821615156101608601526201000081048216151561018086015291926101a08501926301000000900490911690811115610f5057fe5b6001811115610f5b57fe5b90525092915050565b81811015610f9e576040517f08c379a000000000000000000000000000000000000000000000000000000000815260040161021490611e17565b6000825b828111158015610fb3575060035481105b156111bb576000818152600160205260409020805473ffffffffffffffffffffffffffffffffffffffff161580610fee5750600881015460ff165b8061100257506008810154610100900460ff165b806110175750600881015462010000900460ff165b80611026575080600701544211155b1561103157506111b3565b6008810180547fffffffffffffffffffffffffffffffffffffffffffffffffffffffffff00ffff1662010000179055600181015481546004808401546040517fa9059cbb00000000000000000000000000000000000000000000000000000000815260009473ffffffffffffffffffffffffffffffffffffffff9081169463a9059cbb946110c6949190921692909101611b7c565b602060405180830381600087803b1580156110e057600080fd5b505af11580156110f4573d6000803e3d6000fd5b505050506040513d601f19601f8201168201806040525081019061111891906118fa565b905080611151576040517f08c379a000000000000000000000000000000000000000000000000000000000815260040161021490611d72565b8154600483015460405173ffffffffffffffffffffffffffffffffffffffff9092169185917f3f7e15da59477d26ef9573ba17202810057b46791f1465a21f30611fc7656d75916111a29190611f84565b60405180910390a350506001909101905b600101610fa2565b50505050565b60008087116111fc576040517f08c379a000000000000000000000000000000000000000000000000000000000815260040161021490611ebc565b60008311801561120f575062278d008311155b611245576040517f08c379a000000000000000000000000000000000000000000000000000000000815260040161021490611c96565b6040517f23b872dd00000000000000000000000000000000000000000000000000000000815260009073ffffffffffffffffffffffffffffffffffffffff8d16906323b872dd9061129e90339030908d90600401611b4b565b602060405180830381600087803b1580156112b857600080fd5b505af11580156112cc573d6000803e3d6000fd5b505050506040513d601f19601f820116820180604052508101906112f091906118fa565b905080611329576040517f08c379a000000000000000000000000000000000000000000000000000000000815260040161021490611d04565b60036000815480929190600101919050559150604051806101c001604052803373ffffffffffffffffffffffffffffffffffffffff1681526020018d73ffffffffffffffffffffffffffffffffffffffff1681526020018c73ffffffffffffffffffffffffffffffffffffffff1681526020018b62ffffff1681526020018a73ffffffffffffffffffffffffffffffffffffffff1681526020018981526020018881526020018773ffffffffffffffffffffffffffffffffffffffff1681526020018615158152602001854201815260200160001515815260200160001515815260200160001515815260200184600181111561142257fe5b9052600083815260016020818152604092839020845181547fffffffffffffffffffffffff000000000000000000000000000000000000000090811673ffffffffffffffffffffffffffffffffffffffff9283161783559286015182850180548516918316919091179055938501516002820180546060880151908516928716929092177fffffffffffffffffff000000ffffffffffffffffffffffffffffffffffffffff167401000000000000000000000000000000000000000062ffffff90931683021790556080860151600383018054851691871691909117905560a0860151600483015560c0860151600583015560e0860151600683018054610100808a01519190961692909716919091177fffffffffffffffffffffff00ffffffffffffffffffffffffffffffffffffffff169515159091029490941790935561012084015160078401556101408401516008840180546101608701516101808801517fffffffffffffffffffffffffffffffffffffffffffffffffffffffffffffff00909216931515939093177fffffffffffffffffffffffffffffffffffffffffffffffffffffffffffff00ff16921515909302919091177fffffffffffffffffffffffffffffffffffffffffffffffffffffffffff00ffff166201000092151592909202919091178082556101a0850151927fffffffffffffffffffffffffffffffffffffffffffffffffffffffff00ffffff90911690630100000090849081111561164c57fe5b021790555050336000818152600260209081526040808320805460018101825590845291909220018590555190915083907f4a7c6b1e984c5ac140f100a4898dce117573b0fe14a829675781be4f938a3065906116ac908c908890611f8d565b60405180910390a3509a9950505050505050505050565b7f000000000000000000000000000000000000000000000000000000000000000081565b604080516101c081018252600080825260208201819052918101829052606081018290526080810182905260a0810182905260c0810182905260e0810182905261010081018290526101208101829052610140810182905261016081018290526101808101829052906101a082015290565b80356002811061071f57600080fd5b805161ffff8116811461071f57600080fd5b60006020828403121561178b578081fd5b813561179681611fa1565b9392505050565b6000602082840312156117ae578081fd5b815161179681611fa1565b6000806000606084860312156117cd578182fd5b83356117d881611fa1565b925060208401356117e881611fa1565b915060408401356117f881611fa1565b809150509250925092565b6000806000806000806000806000806101408b8d031215611822578586fd5b8a3561182d81611fa1565b995060208b013561183d81611fa1565b985060408b013562ffffff81168114611854578687fd5b975060608b013561186481611fa1565b965060808b0135955060a08b0135945060c08b013561188281611fa1565b935060e08b013561189281611fc6565b92506101008b013591506118a96101208c01611759565b90509295989b9194979a5092959850565b6000806000606084860312156118ce578283fd5b83356118d981611fa1565b925060208401356118e981611fa1565b929592945050506040919091013590565b60006020828403121561190b578081fd5b815161179681611fc6565b600080600080600080600060e0888a031215611930578283fd5b875161193b81611fa1565b8097505060208801518060020b8114611952578384fd5b955061196060408901611768565b945061196e60608901611768565b935061197c60808901611768565b925060a088015160ff81168114611991578283fd5b60c08901519092506119a281611fc6565b8091505092959891949750929550565b6000602082840312156119c3578081fd5b5035919050565b6000602082840312156119db578081fd5b5051919050565b600080604083850312156119f4578182fd5b50508035926020909101359150565b73ffffffffffffffffffffffffffffffffffffffff169052565b15159052565b60028110611a2d57fe5b9052565b611a3c828251611a03565b6020810151611a4e6020840182611a03565b506040810151611a616040840182611a03565b506060810151611a746060840182611b21565b506080810151611a876080840182611a03565b5060a081015160a083015260c081015160c083015260e0810151611aae60e0840182611a03565b5061010080820151611ac282850182611a1d565b5050610120818101519083015261014080820151611ae282850182611a1d565b505061016080820151611af782850182611a1d565b505061018080820151611b0c82850182611a1d565b50506101a0808201516111bb82850182611a23565b62ffffff169052565b73ffffffffffffffffffffffffffffffffffffffff91909116815260200190565b73ffffffffffffffffffffffffffffffffffffffff9384168152919092166020820152604081019190915260600190565b73ffffffffffffffffffffffffffffffffffffffff929092168252602082015260400190565b6020808252825182820181905260009190848201906040850190845b81811015611be557611bd1838551611a31565b928401926101c09290920191600101611bbe565b50909695505050505050565b60208082526011908201527f616c72656164792063616e63656c6c6564000000000000000000000000000000604082015260600190565b60208082526009908201527f6e6f74206d616b65720000000000000000000000000000000000000000000000604082015260600190565b60208082526007908201527f6578706972656400000000000000000000000000000000000000000000000000604082015260600190565b6020808252600b908201527f696e76616c69642054544c000000000000000000000000000000000000000000604082015260600190565b6020808252600d908201527f7072696365206e6f74206d657400000000000000000000000000000000000000604082015260600190565b60208082526013908201527f7472616e7366657246726f6d206661696c656400000000000000000000000000604082015260600190565b60208082526012908201527f696e76616c696420746f6b656e20706169720000000000000000000000000000604082015260600190565b60208082526016908201527f726566756e64207472616e73666572206661696c656400000000000000000000604082015260600190565b60208082526009908201527f63616e63656c6c65640000000000000000000000000000000000000000000000604082015260600190565b60208082526009908201527f6e6f74206f776e65720000000000000000000000000000000000000000000000604082015260600190565b6020808252600d908201527f696e76616c69642072616e676500000000000000000000000000000000000000604082015260600190565b6020808252600e908201527f616c72656164792066696c6c6564000000000000000000000000000000000000604082015260600190565b6020808252600f908201527f7769746864726177206661696c65640000000000000000000000000000000000604082015260600190565b6020808252600c908201527f616d6f756e74496e203d20300000000000000000000000000000000000000000604082015260600190565b60006101008201905073ffffffffffffffffffffffffffffffffffffffff80845116835280602085015116602084015262ffffff60408501511660408401528060608501511660608401526080840151608084015260a084015160a084015260c084015160c08401528060e08501511660e08401525092915050565b6101c08101611f7e8284611a31565b92915050565b90815260200190565b828152604081016117966020830184611a23565b73ffffffffffffffffffffffffffffffffffffffff81168114611fc357600080fd5b50565b8015158114611fc357600080fdfea164736f6c6343000706000a",
  "linkReferences": {},
  "deployedLinkReferences": {}
}