{
  "_format": "hh-sol-artifact-1",
  "contractName": "MyToken",
  "sourceName": "contracts/Token.sol",
  "abi": [
    {
      "inputs": [
        {
          "internalType": "string",
          "name": "name",
          "type": "string"
        },
        {
          "internalType": "string",
          "name": "symbol",
          "type": "string"
        },
        {
          "internalType": "address",
          "name": "owner",
          "type": "address"
        },
        {
          "internalType": "uint256",
          "name": "initialSupply",
          "type": "uint256"
        }
      ],
      "stateMutability": "nonpayable",
      "type": "constructor"
    },
    {
      "anonymous": false,
      "inputs": [
        {
          "indexed": true,
          "internalType": "address",
          "name": "owner",
          "type": "address"
        },
        {
          "indexed": true,
          "internalType": "address",
          "name": "spender",
          "type": "address"
        },
        {
          "indexed": false,
          "internalType": "uint256",
          "name": "value",
          "type": "uint256"
        }
      ],
      "name": "Approval",
      "type": "event"
    },
    {
      "anonymous": false,
      "inputs": [
        {
          "indexed": true,
          "internalType": "address",
          "name": "previousOwner",
          "type": "address"
        },
        {
          "indexed": true,
          "internalType": "address",
          "name": "newOwner",
          "type": "address"
        }
      ],
      "name": "OwnershipTransferred",
      "type": "event"
    },
    {
      "anonymous": false,
      "inputs": [
        {
          "indexed": true,
          "internalType": "address",
          "name": "from",
          "type": "address"
        },
        {
          "indexed": true,
          "internalType": "address",
          "name": "to",
          "type": "address"
        },
        {
          "indexed": false,
          "internalType": "uint256",
          "name": "value",
          "type": "uint256"
        }
      ],
      "name": "Transfer",
      "type": "event"
    },
    {
      "inputs": [
        {
          "internalType": "address",
          "name": "owner",
          "type": "address"
        },
        {
          "internalType": "address",
          "name": "spender",
          "type": "address"
        }
      ],
      "name": "allowance",
      "outputs": [
        {
          "internalType": "uint256",
          "name": "",
          "type": "uint256"
        }
      ],
      "stateMutability": "view",
      "type": "function"
    },
    {
      "inputs": [
        {
          "internalType": "address",
          "name": "spender",
          "type": "address"
        },
        {
          "internalType": "uint256",
          "name": "amount",
          "type": "uint256"
        }
      ],
      "name": "approve",
      "outputs": [
        {
          "internalType": "bool",
          "name": "",
          "type": "bool"
        }
      ],
      "stateMutability": "nonpayable",
      "type": "function"
    },
    {
      "inputs": [
        {
          "internalType": "address",
          "name": "account",
          "type": "address"
        }
      ],
      "name": "balanceOf",
      "outputs": [
        {
          "internalType": "uint256",
          "name": "",
          "type": "uint256"
        }
      ],
      "stateMutability": "view",
      "type": "function"
    },
    {
      "inputs": [
        {
          "internalType": "uint256",
          "name": "amount",
          "type": "uint256"
        }
      ],
      "name": "burn",
      "outputs": [],
      "stateMutability": "nonpayable",
      "type": "function"
    },
    {
      "inputs": [],
      "name": "decimals",
      "outputs": [
        {
          "internalType": "uint8",
          "name": "",
          "type": "uint8"
        }
      ],
      "stateMutability": "view",
      "type": "function"
    },
    {
      "inputs": [
        {
          "internalType": "address",
          "name": "spender",
          "type": "address"
        },
        {
          "internalType": "uint256",
          "name": "subtractedValue",
          "type": "uint256"
        }
      ],
      "name": "decreaseAllowance",
      "outputs": [
        {
          "internalType": "bool",
          "name": "",
          "type": "bool"
        }
      ],
      "stateMutability": "nonpayable",
      "type": "function"
    },
    {
      "inputs": [
        {
          "internalType": "address",
          "name": "spender",
          "type": "address"
        },
        {
          "internalType": "uint256",
          "name": "addedValue",
          "type": "uint256"
        }
      ],
      "name": "increaseAllowance",
      "outputs": [
        {
          "internalType": "bool",
          "name": "",
          "type": "bool"
        }
      ],
      "stateMutability": "nonpayable",
      "type": "function"
    },
    {
      "inputs": [
        {
          "internalType": "address",
          "name": "to",
          "type": "address"
        },
        {
          "internalType": "uint256",
          "name": "amount",
          "type": "uint256"
        }
      ],
      "name": "mint",
      "outputs": [],
      "stateMutability": "nonpayable",
      "type": "function"
    },
    {
      "inputs": [],
      "name": "name",
      "outputs": [
        {
          "internalType": "string",
          "name": "",
          "type": "string"
        }
      ],
      "stateMutability": "view",
      "type": "function"
    },
    {
      "inputs": [],
      "name": "owner",
      "outputs": [
        {
          "internalType": "address",
          "name": "",
          "type": "address"
        }
      ],
      "stateMutability": "view",
      "type": "function"
    },
    {
      "inputs": [],
      "name": "renounceOwnership",
      "outputs": [],
      "stateMutability": "nonpayable",
      "type": "function"
    },
    {
      "inputs": [],
      "name": "symbol",
      "outputs": [
        {
          "internalType": "string",
          "name": "",
          "type": "string"
        }
      ],
      "stateMutability": "view",
      "type": "function"
    },
    {
      "inputs": [],
      "name": "totalSupply",
      "outputs": [
        {
          "internalType": "uint256",
          "name": "",
          "type": "uint256"
        }
      ],
      "stateMutability": "view",
      "type": "function"
    },
    {
      "inputs": [
        {
          "internalType": "address",
          "name": "recipient",
          "type": "address"
        },
        {
          "internalType": "uint256",
          "name": "amount",
          "type": "uint256"
        }
      ],
      "name": "transfer",
      "outputs": [
        {
          "internalType": "bool",
          "name": "",
          "type": "bool"
        }
      ],
      "stateMutability": "nonpayable",
      "type": "function"
    },
    {
      "inputs": [
        {
          "internalType": "address",
          "name": "sender",
          "type": "address"
        },
        {
          "internalType": "address",
          "name": "recipient",
          "type": "address"
        },
        {
          "internalType": "uint256",
          "name": "amount",
          "type": "uint256"
        }
      ],
      "name": "transferFrom",
      "outputs": [
        {
          "internalType": "bool",
          "name": "",
          "type": "bool"
        }
      ],
      "stateMutability": "nonpayable",
      "type": "function"
    },
    {
      "inputs": [
        {
          "internalType": "address",
          "name": "newOwner",
          "type": "address"
        }
      ],
      "name": "transferOwnership",
      "outputs": [],
      "stateMutability": "nonpayable",
      "type": "function"
    }
  ],
  "bytecode": "0x60806040523480156200001157600080fd5b5060405162001a1e38038062001a1e833981810160405260808110156200003757600080fd5b81019080805160405193929190846401000000008211156200005857600080fd5b9083019060208201858111156200006e57600080fd5b82516401000000008111828201881017156200008957600080fd5b82525081516020918201929091019080838360005b83811015620000b85781810151838201526020016200009e565b50505050905090810190601f168015620000e65780820380516001836020036101000a031916815260200191505b50604052602001805160405193929190846401000000008211156200010a57600080fd5b9083019060208201858111156200012057600080fd5b82516401000000008111828201881017156200013b57600080fd5b82525081516020918201929091019080838360005b838110156200016a57818101518382015260200162000150565b50505050905090810190601f168015620001985780820380516001836020036101000a031916815260200191505b50604090815260208281015192909101518651929450925085918591620001c5916003918501906200052a565b508051620001db9060049060208401906200052a565b50506005805460ff19166012179055506000620001f76200027d565b60058054610100600160a81b0319166101006001600160a01b0384169081029190911790915560405191925090600090600080516020620019fe833981519152908290a350620002478262000281565b62000264826200025662000397565b60ff16600a0a8302620003a0565b62000273336200025662000397565b50505050620005d6565b3390565b6200028b6200027d565b6001600160a01b03166200029e620004af565b6001600160a01b031614620002fa576040805162461bcd60e51b815260206004820181905260248201527f4f776e61626c653a2063616c6c6572206973206e6f7420746865206f776e6572604482015290519081900360640190fd5b6001600160a01b038116620003415760405162461bcd60e51b8152600401808060200182810382526026815260200180620019d86026913960400191505060405180910390fd5b6005546040516001600160a01b038084169261010090041690600080516020620019fe83398151915290600090a3600580546001600160a01b0390921661010002610100600160a81b0319909216919091179055565b60055460ff1690565b6001600160a01b038216620003fc576040805162461bcd60e51b815260206004820152601f60248201527f45524332303a206d696e7420746f20746865207a65726f206164647265737300604482015290519081900360640190fd5b6200040a60008383620004c3565b6200042681600254620004c860201b62000b3d1790919060201c565b6002556001600160a01b038216600090815260208181526040909120546200045991839062000b3d620004c8821b17901c565b6001600160a01b0383166000818152602081815260408083209490945583518581529351929391927fddf252ad1be2c89b69c2b068fc378daa952ba7f163c4a11628f55a4df523b3ef9281900390910190a35050565b60055461010090046001600160a01b031690565b505050565b60008282018381101562000523576040805162461bcd60e51b815260206004820152601b60248201527f536166654d6174683a206164646974696f6e206f766572666c6f770000000000604482015290519081900360640190fd5b9392505050565b828054600181600116156101000203166002900490600052602060002090601f016020900481019282620005625760008555620005ad565b82601f106200057d57805160ff1916838001178555620005ad565b82800160010185558215620005ad579182015b82811115620005ad57825182559160200191906001019062000590565b50620005bb929150620005bf565b5090565b5b80821115620005bb5760008155600101620005c0565b6113f280620005e66000396000f3fe608060405234801561001057600080fd5b50600436106101005760003560e01c806370a0823111610097578063a457c2d711610066578063a457c2d71461034f578063a9059cbb14610388578063dd62ed3e146103c1578063f2fde38b146103fc57610100565b806370a08231146102db578063715018a61461030e5780638da5cb5b1461031657806395d89b411461034757610100565b8063313ce567116100d3578063313ce5671461022c578063395093511461024a57806340c10f191461028357806342966c68146102be57610100565b806306fdde0314610105578063095ea7b31461018257806318160ddd146101cf57806323b872dd146101e9575b600080fd5b61010d61042f565b6040805160208082528351818301528351919283929083019185019080838360005b8381101561014757818101518382015260200161012f565b50505050905090810190601f1680156101745780820380516001836020036101000a031916815260200191505b509250505060405180910390f35b6101bb6004803603604081101561019857600080fd5b5073ffffffffffffffffffffffffffffffffffffffff81351690602001356104e3565b604080519115158252519081900360200190f35b6101d7610500565b60408051918252519081900360200190f35b6101bb600480360360608110156101ff57600080fd5b5073ffffffffffffffffffffffffffffffffffffffff813581169160208101359091169060400135610506565b6102346105a7565b6040805160ff9092168252519081900360200190f35b6101bb6004803603604081101561026057600080fd5b5073ffffffffffffffffffffffffffffffffffffffff81351690602001356105b0565b6102bc6004803603604081101561029957600080fd5b5073ffffffffffffffffffffffffffffffffffffffff813516906020013561060b565b005b6102bc600480360360208110156102d457600080fd5b50356106d0565b6101d7600480360360208110156102f157600080fd5b503573ffffffffffffffffffffffffffffffffffffffff166106ec565b6102bc610714565b61031e610830565b6040805173ffffffffffffffffffffffffffffffffffffffff9092168252519081900360200190f35b61010d610851565b6101bb6004803603604081101561036557600080fd5b5073ffffffffffffffffffffffffffffffffffffffff81351690602001356108d0565b6101bb6004803603604081101561039e57600080fd5b5073ffffffffffffffffffffffffffffffffffffffff8135169060200135610945565b6101d7600480360360408110156103d757600080fd5b5073ffffffffffffffffffffffffffffffffffffffff81358116916020013516610959565b6102bc6004803603602081101561041257600080fd5b503573ffffffffffffffffffffffffffffffffffffffff16610991565b60038054604080516020601f60027fffffffffffffffffffffffffffffffffffffffffffffffffffffffffffffffff6101006001881615020190951694909404938401819004810282018101909252828152606093909290918301828280156104d95780601f106104ae576101008083540402835291602001916104d9565b820191906000526020600020905b8154815290600101906020018083116104bc57829003601f168201915b5050505050905090565b60006104f76104f0610bb8565b8484610bbc565b50600192915050565b60025490565b6000610513848484610d03565b61059d8461051f610bb8565b6105988560405180606001604052806028815260200161132f6028913973ffffffffffffffffffffffffffffffffffffffff8a1660009081526001602052604081209061056a610bb8565b73ffffffffffffffffffffffffffffffffffffffff1681526020810191909152604001600020549190610ed3565b610bbc565b5060019392505050565b60055460ff1690565b60006104f76105bd610bb8565b8461059885600160006105ce610bb8565b73ffffffffffffffffffffffffffffffffffffffff908116825260208083019390935260409182016000908120918c168152925290205490610b3d565b610613610bb8565b73ffffffffffffffffffffffffffffffffffffffff16610631610830565b73ffffffffffffffffffffffffffffffffffffffff16146106b357604080517f08c379a000000000000000000000000000000000000000000000000000000000815260206004820181905260248201527f4f776e61626c653a2063616c6c6572206973206e6f7420746865206f776e6572604482015290519081900360640190fd5b6106cc826106bf6105a7565b60ff16600a0a8302610f84565b5050565b6106e9336106dc6105a7565b60ff16600a0a83026110b5565b50565b73ffffffffffffffffffffffffffffffffffffffff1660009081526020819052604090205490565b61071c610bb8565b73ffffffffffffffffffffffffffffffffffffffff1661073a610830565b73ffffffffffffffffffffffffffffffffffffffff16146107bc57604080517f08c379a000000000000000000000000000000000000000000000000000000000815260206004820181905260248201527f4f776e61626c653a2063616c6c6572206973206e6f7420746865206f776e6572604482015290519081900360640190fd5b600554604051600091610100900473ffffffffffffffffffffffffffffffffffffffff16907f8be0079c531659141344cd1fd0a4f28419497f9722a3daafe3b4186f6b6457e0908390a3600580547fffffffffffffffffffffff0000000000000000000000000000000000000000ff169055565b600554610100900473ffffffffffffffffffffffffffffffffffffffff1690565b60048054604080516020601f60027fffffffffffffffffffffffffffffffffffffffffffffffffffffffffffffffff6101006001881615020190951694909404938401819004810282018101909252828152606093909290918301828280156104d95780601f106104ae576101008083540402835291602001916104d9565b60006104f76108dd610bb8565b84610598856040518060600160405280602581526020016113c16025913960016000610907610bb8565b73ffffffffffffffffffffffffffffffffffffffff908116825260208083019390935260409182016000908120918d16815292529020549190610ed3565b60006104f7610952610bb8565b8484610d03565b73ffffffffffffffffffffffffffffffffffffffff918216600090815260016020908152604080832093909416825291909152205490565b610999610bb8565b73ffffffffffffffffffffffffffffffffffffffff166109b7610830565b73ffffffffffffffffffffffffffffffffffffffff1614610a3957604080517f08c379a000000000000000000000000000000000000000000000000000000000815260206004820181905260248201527f4f776e61626c653a2063616c6c6572206973206e6f7420746865206f776e6572604482015290519081900360640190fd5b73ffffffffffffffffffffffffffffffffffffffff8116610aa5576040517f08c379a00000000000000000000000000000000000000000000000000000000081526004018080602001828103825260268152602001806112c16026913960400191505060405180910390fd5b60055460405173ffffffffffffffffffffffffffffffffffffffff80841692610100900416907f8be0079c531659141344cd1fd0a4f28419497f9722a3daafe3b4186f6b6457e090600090a36005805473ffffffffffffffffffffffffffffffffffffffff909216610100027fffffffffffffffffffffff0000000000000000000000000000000000000000ff909216919091179055565b600082820183811015610bb157604080517f08c379a000000000000000000000000000000000000000000000000000000000815260206004820152601b60248201527f536166654d6174683a206164646974696f6e206f766572666c6f770000000000604482015290519081900360640190fd5b9392505050565b3390565b73ffffffffffffffffffffffffffffffffffffffff8316610c28576040517f08c379a000000000000000000000000000000000000000000000000000000000815260040180806020018281038252602481526020018061139d6024913960400191505060405180910390fd5b73ffffffffffffffffffffffffffffffffffffffff8216610c94576040517f08c379a00000000000000000000000000000000000000000000000000000000081526004018080602001828103825260228152602001806112e76022913960400191505060405180910390fd5b73ffffffffffffffffffffffffffffffffffffffff808416600081815260016020908152604080832094871680845294825291829020859055815185815291517f8c5be1e5ebec7d5bd14f71427d1e84f3dd0314c0f7b2291e5b200ac8c7c3b9259281900390910190a3505050565b73ffffffffffffffffffffffffffffffffffffffff8316610d6f576040517f08c379a00000000000000000000000000000000000000000000000000000000081526004018080602001828103825260258152602001806113786025913960400191505060405180910390fd5b73ffffffffffffffffffffffffffffffffffffffff8216610ddb576040517f08c379a000000000000000000000000000000000000000000000000000000000815260040180806020018281038252602381526020018061127c6023913960400191505060405180910390fd5b610de68383836111ff565b610e30816040518060600160405280602681526020016113096026913973ffffffffffffffffffffffffffffffffffffffff86166000908152602081905260409020549190610ed3565b73ffffffffffffffffffffffffffffffffffffffff8085166000908152602081905260408082209390935590841681522054610e6c9082610b3d565b73ffffffffffffffffffffffffffffffffffffffff8084166000818152602081815260409182902094909455805185815290519193928716927fddf252ad1be2c89b69c2b068fc378daa952ba7f163c4a11628f55a4df523b3ef92918290030190a3505050565b60008184841115610f7c576040517f08c379a00000000000000000000000000000000000000000000000000000000081526004018080602001828103825283818151815260200191508051906020019080838360005b83811015610f41578181015183820152602001610f29565b50505050905090810190601f168015610f6e5780820380516001836020036101000a031916815260200191505b509250505060405180910390fd5b505050900390565b73ffffffffffffffffffffffffffffffffffffffff821661100657604080517f08c379a000000000000000000000000000000000000000000000000000000000815260206004820152601f60248201527f45524332303a206d696e7420746f20746865207a65726f206164647265737300604482015290519081900360640190fd5b611012600083836111ff565b60025461101f9082610b3d565b60025573ffffffffffffffffffffffffffffffffffffffff82166000908152602081905260409020546110529082610b3d565b73ffffffffffffffffffffffffffffffffffffffff83166000818152602081815260408083209490945583518581529351929391927fddf252ad1be2c89b69c2b068fc378daa952ba7f163c4a11628f55a4df523b3ef9281900390910190a35050565b73ffffffffffffffffffffffffffffffffffffffff8216611121576040517f08c379a00000000000000000000000000000000000000000000000000000000081526004018080602001828103825260218152602001806113576021913960400191505060405180910390fd5b61112d826000836111ff565b6111778160405180606001604052806022815260200161129f6022913973ffffffffffffffffffffffffffffffffffffffff85166000908152602081905260409020549190610ed3565b73ffffffffffffffffffffffffffffffffffffffff83166000908152602081905260409020556002546111aa9082611204565b60025560408051828152905160009173ffffffffffffffffffffffffffffffffffffffff8516917fddf252ad1be2c89b69c2b068fc378daa952ba7f163c4a11628f55a4df523b3ef9181900360200190a35050565b505050565b60008282111561127557604080517f08c379a000000000000000000000000000000000000000000000000000000000815260206004820152601e60248201527f536166654d6174683a207375627472616374696f6e206f766572666c6f770000604482015290519081900360640190fd5b5090039056fe45524332303a207472616e7366657220746f20746865207a65726f206164647265737345524332303a206275726e20616d6f756e7420657863656564732062616c616e63654f776e61626c653a206e6577206f776e657220697320746865207a65726f206164647265737345524332303a20617070726f766520746f20746865207a65726f206164647265737345524332303a207472616e7366657220616d6f756e7420657863656564732062616c616e636545524332303a207472616e7366657220616d6f756e74206578636565647320616c6c6f77616e636545524332303a206275726e2066726f6d20746865207a65726f206164647265737345524332303a207472616e736665722066726f6d20746865207a65726f206164647265737345524332303a20617070726f76652066726f6d20746865207a65726f206164647265737345524332303a2064656372656173656420616c6c6f77616e63652062656c6f77207a65726fa164736f6c6343000706000a4f776e61626c653a206e6577206f776e657220697320746865207a65726f20616464726573738be0079c531659141344cd1fd0a4f28419497f9722a3daafe3b4186f6b6457e0",
  "linkReferences": {},
  "deployedLinkReferences": {}
}